{
  "contractName": "GcitNFT",
  "abi": [
    {
      "inputs": [],
      "stateMutability": "nonpayable",
      "type": "constructor"
    },
    {
      "inputs": [
        {
          "internalType": "address",
          "name": "sender",
          "type": "address"
        },
        {
          "internalType": "uint256",
          "name": "tokenId",
          "type": "uint256"
        },
        {
          "internalType": "address",
          "name": "owner",
          "type": "address"
        }
      ],
      "name": "ERC721IncorrectOwner",
      "type": "error"
    },
    {
      "inputs": [
        {
          "internalType": "address",
          "name": "operator",
          "type": "address"
        },
        {
          "internalType": "uint256",
          "name": "tokenId",
          "type": "uint256"
        }
      ],
      "name": "ERC721InsufficientApproval",
      "type": "error"
    },
    {
      "inputs": [
        {
          "internalType": "address",
          "name": "approver",
          "type": "address"
        }
      ],
      "name": "ERC721InvalidApprover",
      "type": "error"
    },
    {
      "inputs": [
        {
          "internalType": "address",
          "name": "operator",
          "type": "address"
        }
      ],
      "name": "ERC721InvalidOperator",
      "type": "error"
    },
    {
      "inputs": [
        {
          "internalType": "address",
          "name": "owner",
          "type": "address"
        }
      ],
      "name": "ERC721InvalidOwner",
      "type": "error"
    },
    {
      "inputs": [
        {
          "internalType": "address",
          "name": "receiver",
          "type": "address"
        }
      ],
      "name": "ERC721InvalidReceiver",
      "type": "error"
    },
    {
      "inputs": [
        {
          "internalType": "address",
          "name": "sender",
          "type": "address"
        }
      ],
      "name": "ERC721InvalidSender",
      "type": "error"
    },
    {
      "inputs": [
        {
          "internalType": "uint256",
          "name": "tokenId",
          "type": "uint256"
        }
      ],
      "name": "ERC721NonexistentToken",
      "type": "error"
    },
    {
      "anonymous": false,
      "inputs": [
        {
          "indexed": true,
          "internalType": "address",
          "name": "owner",
          "type": "address"
        },
        {
          "indexed": true,
          "internalType": "address",
          "name": "approved",
          "type": "address"
        },
        {
          "indexed": true,
          "internalType": "uint256",
          "name": "tokenId",
          "type": "uint256"
        }
      ],
      "name": "Approval",
      "type": "event"
    },
    {
      "anonymous": false,
      "inputs": [
        {
          "indexed": true,
          "internalType": "address",
          "name": "owner",
          "type": "address"
        },
        {
          "indexed": true,
          "internalType": "address",
          "name": "operator",
          "type": "address"
        },
        {
          "indexed": false,
          "internalType": "bool",
          "name": "approved",
          "type": "bool"
        }
      ],
      "name": "ApprovalForAll",
      "type": "event"
    },
    {
      "anonymous": false,
      "inputs": [
        {
          "indexed": false,
          "internalType": "uint256",
          "name": "_fromTokenId",
          "type": "uint256"
        },
        {
          "indexed": false,
          "internalType": "uint256",
          "name": "_toTokenId",
          "type": "uint256"
        }
      ],
      "name": "BatchMetadataUpdate",
      "type": "event"
    },
    {
      "anonymous": false,
      "inputs": [
        {
          "indexed": false,
          "internalType": "uint256",
          "name": "_tokenId",
          "type": "uint256"
        }
      ],
      "name": "MetadataUpdate",
      "type": "event"
    },
    {
      "anonymous": false,
      "inputs": [
        {
          "indexed": true,
          "internalType": "address",
          "name": "from",
          "type": "address"
        },
        {
          "indexed": true,
          "internalType": "address",
          "name": "to",
          "type": "address"
        },
        {
          "indexed": true,
          "internalType": "uint256",
          "name": "tokenId",
          "type": "uint256"
        }
      ],
      "name": "Transfer",
      "type": "event"
    },
    {
      "inputs": [
        {
          "internalType": "address",
          "name": "to",
          "type": "address"
        },
        {
          "internalType": "uint256",
          "name": "tokenId",
          "type": "uint256"
        }
      ],
      "name": "approve",
      "outputs": [],
      "stateMutability": "nonpayable",
      "type": "function"
    },
    {
      "inputs": [
        {
          "internalType": "address",
          "name": "owner",
          "type": "address"
        }
      ],
      "name": "balanceOf",
      "outputs": [
        {
          "internalType": "uint256",
          "name": "",
          "type": "uint256"
        }
      ],
      "stateMutability": "view",
      "type": "function",
      "constant": true
    },
    {
      "inputs": [
        {
          "internalType": "uint256",
          "name": "tokenId",
          "type": "uint256"
        }
      ],
      "name": "getApproved",
      "outputs": [
        {
          "internalType": "address",
          "name": "",
          "type": "address"
        }
      ],
      "stateMutability": "view",
      "type": "function",
      "constant": true
    },
    {
      "inputs": [
        {
          "internalType": "address",
          "name": "owner",
          "type": "address"
        },
        {
          "internalType": "address",
          "name": "operator",
          "type": "address"
        }
      ],
      "name": "isApprovedForAll",
      "outputs": [
        {
          "internalType": "bool",
          "name": "",
          "type": "bool"
        }
      ],
      "stateMutability": "view",
      "type": "function",
      "constant": true
    },
    {
      "inputs": [],
      "name": "name",
      "outputs": [
        {
          "internalType": "string",
          "name": "",
          "type": "string"
        }
      ],
      "stateMutability": "view",
      "type": "function",
      "constant": true
    },
    {
      "inputs": [
        {
          "internalType": "uint256",
          "name": "tokenId",
          "type": "uint256"
        }
      ],
      "name": "ownerOf",
      "outputs": [
        {
          "internalType": "address",
          "name": "",
          "type": "address"
        }
      ],
      "stateMutability": "view",
      "type": "function",
      "constant": true
    },
    {
      "inputs": [
        {
          "internalType": "address",
          "name": "from",
          "type": "address"
        },
        {
          "internalType": "address",
          "name": "to",
          "type": "address"
        },
        {
          "internalType": "uint256",
          "name": "tokenId",
          "type": "uint256"
        }
      ],
      "name": "safeTransferFrom",
      "outputs": [],
      "stateMutability": "nonpayable",
      "type": "function"
    },
    {
      "inputs": [
        {
          "internalType": "address",
          "name": "from",
          "type": "address"
        },
        {
          "internalType": "address",
          "name": "to",
          "type": "address"
        },
        {
          "internalType": "uint256",
          "name": "tokenId",
          "type": "uint256"
        },
        {
          "internalType": "bytes",
          "name": "data",
          "type": "bytes"
        }
      ],
      "name": "safeTransferFrom",
      "outputs": [],
      "stateMutability": "nonpayable",
      "type": "function"
    },
    {
      "inputs": [
        {
          "internalType": "address",
          "name": "operator",
          "type": "address"
        },
        {
          "internalType": "bool",
          "name": "approved",
          "type": "bool"
        }
      ],
      "name": "setApprovalForAll",
      "outputs": [],
      "stateMutability": "nonpayable",
      "type": "function"
    },
    {
      "inputs": [
        {
          "internalType": "bytes4",
          "name": "interfaceId",
          "type": "bytes4"
        }
      ],
      "name": "supportsInterface",
      "outputs": [
        {
          "internalType": "bool",
          "name": "",
          "type": "bool"
        }
      ],
      "stateMutability": "view",
      "type": "function",
      "constant": true
    },
    {
      "inputs": [],
      "name": "symbol",
      "outputs": [
        {
          "internalType": "string",
          "name": "",
          "type": "string"
        }
      ],
      "stateMutability": "view",
      "type": "function",
      "constant": true
    },
    {
      "inputs": [
        {
          "internalType": "uint256",
          "name": "tokenId",
          "type": "uint256"
        }
      ],
      "name": "tokenURI",
      "outputs": [
        {
          "internalType": "string",
          "name": "",
          "type": "string"
        }
      ],
      "stateMutability": "view",
      "type": "function",
      "constant": true
    },
    {
      "inputs": [
        {
          "internalType": "address",
          "name": "from",
          "type": "address"
        },
        {
          "internalType": "address",
          "name": "to",
          "type": "address"
        },
        {
          "internalType": "uint256",
          "name": "tokenId",
          "type": "uint256"
        }
      ],
      "name": "transferFrom",
      "outputs": [],
      "stateMutability": "nonpayable",
      "type": "function"
    },
    {
      "inputs": [
        {
          "internalType": "address",
          "name": "player",
          "type": "address"
        },
        {
          "internalType": "string",
          "name": "tokenURI",
          "type": "string"
        }
      ],
      "name": "addNFTItem",
      "outputs": [
        {
          "internalType": "uint256",
          "name": "",
          "type": "uint256"
        }
      ],
      "stateMutability": "nonpayable",
      "type": "function"
    }
  ],
  "bytecode": "0x60806040523480156200001157600080fd5b506040518060400160405280601381526020017f47636974204e465420436f6c6c656374696f6e000000000000000000000000008152506040518060400160405280600781526020017f474349544e46540000000000000000000000000000000000000000000000000081525081600090816200008f91906200017e565b5060016200009e82826200017e565b50505062000251565b7f4e487b7100000000000000000000000000000000000000000000000000000000600052604160045260246000fd5b600281046001821680620000eb57607f821691505b60208210810362000125577f4e487b7100000000000000000000000000000000000000000000000000000000600052602260045260246000fd5b50919050565b601f82111562000179576000818152602081206020601f86010481016020861015620001545750805b6020601f860104820191505b81811015620001755782815560010162000160565b5050505b505050565b815167ffffffffffffffff8111156200019b576200019b620000a7565b620001b381620001ac8454620000d6565b846200012b565b602080601f831160018114620001ef5760008415620001d25750858301515b60028086026008870290910a600019041982161786555062000175565b600085815260208120601f198616915b828110156200022057888601518255948401946001909101908401620001ff565b50858210156200024157878501516008601f88160260020a60001904191681555b5050505050600202600101905550565b6114e080620002616000396000f3fe608060405234801561001057600080fd5b5060043610610107576000357c01000000000000000000000000000000000000000000000000000000009004806370a08231116100a9578063b88d4fde11610083578063b88d4fde146101fe578063c87b56dd14610211578063cdd5b99214610224578063e985e9c51461023757600080fd5b806370a08231146101c257806395d89b41146101e3578063a22cb465146101eb57600080fd5b8063095ea7b3116100e5578063095ea7b31461017457806323b872dd1461018957806342842e0e1461019c5780636352211e146101af57600080fd5b806301ffc9a71461010c57806306fdde0314610134578063081812fc14610149575b600080fd5b61011f61011a366004610f53565b61024a565b60405190151581526020015b60405180910390f35b61013c61028e565b60405161012b9190610fc0565b61015c610157366004610fd3565b610320565b604051600160a060020a03909116815260200161012b565b610187610182366004611008565b610349565b005b610187610197366004611032565b610358565b6101876101aa366004611032565b610404565b61015c6101bd366004610fd3565b610424565b6101d56101d036600461106e565b61042f565b60405190815260200161012b565b61013c610490565b6101876101f9366004611089565b61049f565b61018761020c36600461116a565b6104aa565b61013c61021f366004610fd3565b6104c1565b6101d56102323660046111e6565b6105d2565b61011f610245366004611248565b610607565b6000600160e060020a031982167f49064906000000000000000000000000000000000000000000000000000000001480610288575061028882610635565b92915050565b60606000805461029d9061127b565b80601f01602080910402602001604051908101604052809291908181526020018280546102c99061127b565b80156103165780601f106102eb57610100808354040283529160200191610316565b820191906000526020600020905b8154815290600101906020018083116102f957829003601f168201915b5050505050905090565b600061032b826106d0565b50600082815260046020526040902054600160a060020a0316610288565b610354828233610722565b5050565b600160a060020a03821661038a5760405160e160020a6332505749028152600060048201526024015b60405180910390fd5b600061039783833361072f565b905083600160a060020a031681600160a060020a0316146103fe576040517f64283d7b000000000000000000000000000000000000000000000000000000008152600160a060020a0380861660048301526024820184905282166044820152606401610381565b50505050565b61041f838383604051806020016040528060008152506104aa565b505050565b6000610288826106d0565b6000600160a060020a038216610474576040517f89c62b6400000000000000000000000000000000000000000000000000000000815260006004820152602401610381565b50600160a060020a031660009081526003602052604090205490565b60606001805461029d9061127b565b610354338383610835565b6104b5848484610358565b6103fe848484846108ed565b60606104cc826106d0565b50600082815260066020526040812080546104e69061127b565b80601f01602080910402602001604051908101604052809291908181526020018280546105129061127b565b801561055f5780601f106105345761010080835404028352916020019161055f565b820191906000526020600020905b81548152906001019060200180831161054257829003601f168201915b50505050509050600061057d60408051602081019091526000815290565b9050805160000361058f575092915050565b8151156105c15780826040516020016105a99291906112ce565b60405160208183030381529060405292505050919050565b6105ca84610a4e565b949350505050565b60078054600091829190826105e6836112fd565b9190505590506105f68482610ac2565b6106008184610b43565b9392505050565b600160a060020a03918216600090815260056020908152604080832093909416825291909152205460ff1690565b6000600160e060020a031982167f80ac58cd0000000000000000000000000000000000000000000000000000000014806106985750600160e060020a031982167f5b5e139f00000000000000000000000000000000000000000000000000000000145b8061028857507f01ffc9a700000000000000000000000000000000000000000000000000000000600160e060020a0319831614610288565b600081815260026020526040812054600160a060020a031680610288576040517f7e27328900000000000000000000000000000000000000000000000000000000815260048101849052602401610381565b61041f8383836001610b93565b600082815260026020526040812054600160a060020a039081169083161561075c5761075c818486610cbf565b600160a060020a0381161561079a57610779600085600080610b93565b600160a060020a038116600090815260036020526040902080546000190190555b600160a060020a038516156107c957600160a060020a0385166000908152600360205260409020805460010190555b600084815260026020526040808220805473ffffffffffffffffffffffffffffffffffffffff1916600160a060020a0389811691821790925591518793918516917fddf252ad1be2c89b69c2b068fc378daa952ba7f163c4a11628f55a4df523b3ef91a4949350505050565b600160a060020a038216610880576040517f5b08ba18000000000000000000000000000000000000000000000000000000008152600160a060020a0383166004820152602401610381565b600160a060020a03838116600081815260056020908152604080832094871680845294825291829020805460ff191686151590811790915591519182527f17307eab39ab6107e8899845ad3d59bd9653f200f220920489ca2b5937696c31910160405180910390a3505050565b600160a060020a0383163b156103fe576040517f150b7a02000000000000000000000000000000000000000000000000000000008152600160a060020a0384169063150b7a029061094890339088908790879060040161133d565b6020604051808303816000875af1925050508015610983575060408051601f3d908101601f1916820190925261098091810190611379565b60015b6109ef573d8080156109b1576040519150601f19603f3d011682016040523d82523d6000602084013e6109b6565b606091505b5080516000036109e75760405160e160020a6332505749028152600160a060020a0385166004820152602401610381565b805181602001fd5b600160e060020a031981167f150b7a020000000000000000000000000000000000000000000000000000000014610a475760405160e160020a6332505749028152600160a060020a0385166004820152602401610381565b5050505050565b6060610a59826106d0565b506000610a7160408051602081019091526000815290565b90506000815111610a915760405180602001604052806000815250610600565b80610a9b84610d55565b604051602001610aac9291906112ce565b6040516020818303038152906040529392505050565b600160a060020a038216610aef5760405160e160020a633250574902815260006004820152602401610381565b6000610afd8383600061072f565b9050600160a060020a0381161561041f576040517f73c6ac6e00000000000000000000000000000000000000000000000000000000815260006004820152602401610381565b6000828152600660205260409020610b5b82826113e4565b506040518281527ff8e1a15aba9398e019f0b49df1a4fde98ee17ae345cb5f6b5e2c27f5033e8ce79060200160405180910390a15050565b8080610ba75750600160a060020a03821615155b15610c82576000610bb7846106d0565b9050600160a060020a03831615801590610be3575082600160a060020a031681600160a060020a031614155b8015610bf65750610bf48184610607565b155b15610c38576040517fa9fbf51f000000000000000000000000000000000000000000000000000000008152600160a060020a0384166004820152602401610381565b8115610c80578385600160a060020a031682600160a060020a03167f8c5be1e5ebec7d5bd14f71427d1e84f3dd0314c0f7b2291e5b200ac8c7c3b92560405160405180910390a45b505b50506000908152600460205260409020805473ffffffffffffffffffffffffffffffffffffffff1916600160a060020a0392909216919091179055565b610cca838383610df5565b61041f57600160a060020a038316610d11576040517f7e27328900000000000000000000000000000000000000000000000000000000815260048101829052602401610381565b6040517f177e802f000000000000000000000000000000000000000000000000000000008152600160a060020a038316600482015260248101829052604401610381565b60606000610d6283610e58565b600101905060008167ffffffffffffffff811115610d8257610d826110c5565b6040519080825280601f01601f191660200182016040528015610dac576020820181803683370190505b5090508181016020015b600019017f3031323334353637383961626364656600000000000000000000000000000000600a86061a8153600a8504945084610db657509392505050565b6000600160a060020a038316158015906105ca575082600160a060020a031684600160a060020a03161480610e2f5750610e2f8484610607565b806105ca575050600090815260046020526040902054600160a060020a03908116911614919050565b6000807a184f03e93ff9f4daa797ed6e38ed64bf6a1f0100000000000000008310610ea1577a184f03e93ff9f4daa797ed6e38ed64bf6a1f010000000000000000830492506040015b6d04ee2d6d415b85acef81000000008310610ecd576d04ee2d6d415b85acef8100000000830492506020015b662386f26fc100008310610eeb57662386f26fc10000830492506010015b6305f5e1008310610f03576305f5e100830492506008015b6127108310610f1757612710830492506004015b60648310610f29576064830492506002015b600a83106102885760010192915050565b600160e060020a031981168114610f5057600080fd5b50565b600060208284031215610f6557600080fd5b813561060081610f3a565b60005b83811015610f8b578181015183820152602001610f73565b50506000910152565b60008151808452610fac816020860160208601610f70565b601f01601f19169290920160200192915050565b6020815260006106006020830184610f94565b600060208284031215610fe557600080fd5b5035919050565b8035600160a060020a038116811461100357600080fd5b919050565b6000806040838503121561101b57600080fd5b61102483610fec565b946020939093013593505050565b60008060006060848603121561104757600080fd5b61105084610fec565b925061105e60208501610fec565b9150604084013590509250925092565b60006020828403121561108057600080fd5b61060082610fec565b6000806040838503121561109c57600080fd5b6110a583610fec565b9150602083013580151581146110ba57600080fd5b809150509250929050565b7f4e487b7100000000000000000000000000000000000000000000000000000000600052604160045260246000fd5b600067ffffffffffffffff8084111561110f5761110f6110c5565b604051601f8501601f19908116603f01168101908282118183101715611137576111376110c5565b8160405280935085815286868601111561115057600080fd5b858560208301376000602087830101525050509392505050565b6000806000806080858703121561118057600080fd5b61118985610fec565b935061119760208601610fec565b925060408501359150606085013567ffffffffffffffff8111156111ba57600080fd5b8501601f810187136111cb57600080fd5b6111da878235602084016110f4565b91505092959194509250565b600080604083850312156111f957600080fd5b61120283610fec565b9150602083013567ffffffffffffffff81111561121e57600080fd5b8301601f8101851361122f57600080fd5b61123e858235602084016110f4565b9150509250929050565b6000806040838503121561125b57600080fd5b61126483610fec565b915061127260208401610fec565b90509250929050565b60028104600182168061128f57607f821691505b6020821081036112c8577f4e487b7100000000000000000000000000000000000000000000000000000000600052602260045260246000fd5b50919050565b600083516112e0818460208801610f70565b8351908301906112f4818360208801610f70565b01949350505050565b600060018201611336577f4e487b7100000000000000000000000000000000000000000000000000000000600052601160045260246000fd5b5060010190565b6000600160a060020a0380871683528086166020840152508360408301526080606083015261136f6080830184610f94565b9695505050505050565b60006020828403121561138b57600080fd5b815161060081610f3a565b601f82111561041f576000818152602081206020601f860104810160208610156113bd5750805b6020601f860104820191505b818110156113dc578281556001016113c9565b505050505050565b815167ffffffffffffffff8111156113fe576113fe6110c5565b6114128161140c845461127b565b84611396565b602080601f83116001811461144b576000841561142f5750858301515b60028086026008870290910a60001904198216178655506113dc565b600085815260208120601f198616915b8281101561147a5788860151825594840194600190910190840161145b565b508582101561149a57878501516008601f88160260020a60001904191681555b505050505060020260010190555056fea2646970667358221220eb1d565961f92ca6a0de26cdf539ba1d7a8c46f25ef7189a112d389e2886f9eb64736f6c63430008140033",
  "immutableReferences": {},
  "source": "// contracts/GameItem.sol\n// SPDX-License-Identifier: MIT\npragma solidity ^0.8.20;\n\nimport \"@openzeppelin/contracts/token/ERC721/extensions/ERC721URIStorage.sol\";\n\ncontract GcitNFT is ERC721URIStorage {\n    uint256 private _nextTokenId;\n\n    constructor() ERC721(\"Gcit NFT Collection\", \"GCITNFT\") {}\n\n    function addNFTItem(address player, string memory tokenURI)\n        public\n        returns (uint256)\n    {\n        uint256 tokenId = _nextTokenId++;\n        _mint(player, tokenId);\n        _setTokenURI(tokenId, tokenURI);\n\n        return tokenId;\n    }\n}",
  "sourcePath": "/ipfs/erc721/contracts/GcitNFT.sol",
  "compiler": {
    "name": "solc",
    "version": "0.8.20+commit.a1b79de6.Emscripten.clang"
  },
  "schemaVersion": "3.4.16",
  "updatedAt": "2024-08-18T17:32:39.555Z",
  "networkType": "ethereum",
  "devdoc": {
    "errors": {
      "ERC721IncorrectOwner(address,uint256,address)": [
        {
          "details": "Indicates an error related to the ownership over a particular token. Used in transfers.",
          "params": {
            "owner": "Address of the current owner of a token.",
            "sender": "Address whose tokens are being transferred.",
            "tokenId": "Identifier number of a token."
          }
        }
      ],
      "ERC721InsufficientApproval(address,uint256)": [
        {
          "details": "Indicates a failure with the `operator`s approval. Used in transfers.",
          "params": {
            "operator": "Address that may be allowed to operate on tokens without being their owner.",
            "tokenId": "Identifier number of a token."
          }
        }
      ],
      "ERC721InvalidApprover(address)": [
        {
          "details": "Indicates a failure with the `approver` of a token to be approved. Used in approvals.",
          "params": {
            "approver": "Address initiating an approval operation."
          }
        }
      ],
      "ERC721InvalidOperator(address)": [
        {
          "details": "Indicates a failure with the `operator` to be approved. Used in approvals.",
          "params": {
            "operator": "Address that may be allowed to operate on tokens without being their owner."
          }
        }
      ],
      "ERC721InvalidOwner(address)": [
        {
          "details": "Indicates that an address can't be an owner. For example, `address(0)` is a forbidden owner in EIP-20. Used in balance queries.",
          "params": {
            "owner": "Address of the current owner of a token."
          }
        }
      ],
      "ERC721InvalidReceiver(address)": [
        {
          "details": "Indicates a failure with the token `receiver`. Used in transfers.",
          "params": {
            "receiver": "Address to which tokens are being transferred."
          }
        }
      ],
      "ERC721InvalidSender(address)": [
        {
          "details": "Indicates a failure with the token `sender`. Used in transfers.",
          "params": {
            "sender": "Address whose tokens are being transferred."
          }
        }
      ],
      "ERC721NonexistentToken(uint256)": [
        {
          "details": "Indicates a `tokenId` whose `owner` is the zero address.",
          "params": {
            "tokenId": "Identifier number of a token."
          }
        }
      ]
    },
    "events": {
      "Approval(address,address,uint256)": {
        "details": "Emitted when `owner` enables `approved` to manage the `tokenId` token."
      },
      "ApprovalForAll(address,address,bool)": {
        "details": "Emitted when `owner` enables or disables (`approved`) `operator` to manage all of its assets."
      },
      "BatchMetadataUpdate(uint256,uint256)": {
        "details": "This event emits when the metadata of a range of tokens is changed. So that the third-party platforms such as NFT market could timely update the images and related attributes of the NFTs."
      },
      "MetadataUpdate(uint256)": {
        "details": "This event emits when the metadata of a token is changed. So that the third-party platforms such as NFT market could timely update the images and related attributes of the NFT."
      },
      "Transfer(address,address,uint256)": {
        "details": "Emitted when `tokenId` token is transferred from `from` to `to`."
      }
    },
    "kind": "dev",
    "methods": {
      "approve(address,uint256)": {
        "details": "See {IERC721-approve}."
      },
      "balanceOf(address)": {
        "details": "See {IERC721-balanceOf}."
      },
      "getApproved(uint256)": {
        "details": "See {IERC721-getApproved}."
      },
      "isApprovedForAll(address,address)": {
        "details": "See {IERC721-isApprovedForAll}."
      },
      "name()": {
        "details": "See {IERC721Metadata-name}."
      },
      "ownerOf(uint256)": {
        "details": "See {IERC721-ownerOf}."
      },
      "safeTransferFrom(address,address,uint256)": {
        "details": "See {IERC721-safeTransferFrom}."
      },
      "safeTransferFrom(address,address,uint256,bytes)": {
        "details": "See {IERC721-safeTransferFrom}."
      },
      "setApprovalForAll(address,bool)": {
        "details": "See {IERC721-setApprovalForAll}."
      },
      "supportsInterface(bytes4)": {
        "details": "See {IERC165-supportsInterface}"
      },
      "symbol()": {
        "details": "See {IERC721Metadata-symbol}."
      },
      "tokenURI(uint256)": {
        "details": "See {IERC721Metadata-tokenURI}."
      },
      "transferFrom(address,address,uint256)": {
        "details": "See {IERC721-transferFrom}."
      }
    },
    "version": 1
  },
  "userdoc": {
    "kind": "user",
    "methods": {},
    "version": 1
  }
}