{
  "contractName": "GcitNFT",
  "abi": [
    {
      "inputs": [],
      "stateMutability": "nonpayable",
      "type": "constructor"
    },
    {
      "inputs": [
        {
          "internalType": "address",
          "name": "sender",
          "type": "address"
        },
        {
          "internalType": "uint256",
          "name": "tokenId",
          "type": "uint256"
        },
        {
          "internalType": "address",
          "name": "owner",
          "type": "address"
        }
      ],
      "name": "ERC721IncorrectOwner",
      "type": "error"
    },
    {
      "inputs": [
        {
          "internalType": "address",
          "name": "operator",
          "type": "address"
        },
        {
          "internalType": "uint256",
          "name": "tokenId",
          "type": "uint256"
        }
      ],
      "name": "ERC721InsufficientApproval",
      "type": "error"
    },
    {
      "inputs": [
        {
          "internalType": "address",
          "name": "approver",
          "type": "address"
        }
      ],
      "name": "ERC721InvalidApprover",
      "type": "error"
    },
    {
      "inputs": [
        {
          "internalType": "address",
          "name": "operator",
          "type": "address"
        }
      ],
      "name": "ERC721InvalidOperator",
      "type": "error"
    },
    {
      "inputs": [
        {
          "internalType": "address",
          "name": "owner",
          "type": "address"
        }
      ],
      "name": "ERC721InvalidOwner",
      "type": "error"
    },
    {
      "inputs": [
        {
          "internalType": "address",
          "name": "receiver",
          "type": "address"
        }
      ],
      "name": "ERC721InvalidReceiver",
      "type": "error"
    },
    {
      "inputs": [
        {
          "internalType": "address",
          "name": "sender",
          "type": "address"
        }
      ],
      "name": "ERC721InvalidSender",
      "type": "error"
    },
    {
      "inputs": [
        {
          "internalType": "uint256",
          "name": "tokenId",
          "type": "uint256"
        }
      ],
      "name": "ERC721NonexistentToken",
      "type": "error"
    },
    {
      "inputs": [
        {
          "internalType": "address",
          "name": "owner",
          "type": "address"
        }
      ],
      "name": "OwnableInvalidOwner",
      "type": "error"
    },
    {
      "inputs": [
        {
          "internalType": "address",
          "name": "account",
          "type": "address"
        }
      ],
      "name": "OwnableUnauthorizedAccount",
      "type": "error"
    },
    {
      "anonymous": false,
      "inputs": [
        {
          "indexed": true,
          "internalType": "address",
          "name": "owner",
          "type": "address"
        },
        {
          "indexed": true,
          "internalType": "address",
          "name": "approved",
          "type": "address"
        },
        {
          "indexed": true,
          "internalType": "uint256",
          "name": "tokenId",
          "type": "uint256"
        }
      ],
      "name": "Approval",
      "type": "event"
    },
    {
      "anonymous": false,
      "inputs": [
        {
          "indexed": true,
          "internalType": "address",
          "name": "owner",
          "type": "address"
        },
        {
          "indexed": true,
          "internalType": "address",
          "name": "operator",
          "type": "address"
        },
        {
          "indexed": false,
          "internalType": "bool",
          "name": "approved",
          "type": "bool"
        }
      ],
      "name": "ApprovalForAll",
      "type": "event"
    },
    {
      "anonymous": false,
      "inputs": [
        {
          "indexed": false,
          "internalType": "uint256",
          "name": "_fromTokenId",
          "type": "uint256"
        },
        {
          "indexed": false,
          "internalType": "uint256",
          "name": "_toTokenId",
          "type": "uint256"
        }
      ],
      "name": "BatchMetadataUpdate",
      "type": "event"
    },
    {
      "anonymous": false,
      "inputs": [
        {
          "indexed": false,
          "internalType": "uint256",
          "name": "_tokenId",
          "type": "uint256"
        }
      ],
      "name": "MetadataUpdate",
      "type": "event"
    },
    {
      "anonymous": false,
      "inputs": [
        {
          "indexed": true,
          "internalType": "address",
          "name": "previousOwner",
          "type": "address"
        },
        {
          "indexed": true,
          "internalType": "address",
          "name": "newOwner",
          "type": "address"
        }
      ],
      "name": "OwnershipTransferred",
      "type": "event"
    },
    {
      "anonymous": false,
      "inputs": [
        {
          "indexed": true,
          "internalType": "address",
          "name": "from",
          "type": "address"
        },
        {
          "indexed": true,
          "internalType": "address",
          "name": "to",
          "type": "address"
        },
        {
          "indexed": true,
          "internalType": "uint256",
          "name": "tokenId",
          "type": "uint256"
        }
      ],
      "name": "Transfer",
      "type": "event"
    },
    {
      "inputs": [
        {
          "internalType": "address",
          "name": "to",
          "type": "address"
        },
        {
          "internalType": "uint256",
          "name": "tokenId",
          "type": "uint256"
        }
      ],
      "name": "approve",
      "outputs": [],
      "stateMutability": "nonpayable",
      "type": "function"
    },
    {
      "inputs": [
        {
          "internalType": "address",
          "name": "owner",
          "type": "address"
        }
      ],
      "name": "balanceOf",
      "outputs": [
        {
          "internalType": "uint256",
          "name": "",
          "type": "uint256"
        }
      ],
      "stateMutability": "view",
      "type": "function",
      "constant": true
    },
    {
      "inputs": [
        {
          "internalType": "uint256",
          "name": "tokenId",
          "type": "uint256"
        }
      ],
      "name": "getApproved",
      "outputs": [
        {
          "internalType": "address",
          "name": "",
          "type": "address"
        }
      ],
      "stateMutability": "view",
      "type": "function",
      "constant": true
    },
    {
      "inputs": [
        {
          "internalType": "address",
          "name": "owner",
          "type": "address"
        },
        {
          "internalType": "address",
          "name": "operator",
          "type": "address"
        }
      ],
      "name": "isApprovedForAll",
      "outputs": [
        {
          "internalType": "bool",
          "name": "",
          "type": "bool"
        }
      ],
      "stateMutability": "view",
      "type": "function",
      "constant": true
    },
    {
      "inputs": [],
      "name": "name",
      "outputs": [
        {
          "internalType": "string",
          "name": "",
          "type": "string"
        }
      ],
      "stateMutability": "view",
      "type": "function",
      "constant": true
    },
    {
      "inputs": [],
      "name": "owner",
      "outputs": [
        {
          "internalType": "address",
          "name": "",
          "type": "address"
        }
      ],
      "stateMutability": "view",
      "type": "function",
      "constant": true
    },
    {
      "inputs": [
        {
          "internalType": "uint256",
          "name": "tokenId",
          "type": "uint256"
        }
      ],
      "name": "ownerOf",
      "outputs": [
        {
          "internalType": "address",
          "name": "",
          "type": "address"
        }
      ],
      "stateMutability": "view",
      "type": "function",
      "constant": true
    },
    {
      "inputs": [],
      "name": "renounceOwnership",
      "outputs": [],
      "stateMutability": "nonpayable",
      "type": "function"
    },
    {
      "inputs": [
        {
          "internalType": "address",
          "name": "from",
          "type": "address"
        },
        {
          "internalType": "address",
          "name": "to",
          "type": "address"
        },
        {
          "internalType": "uint256",
          "name": "tokenId",
          "type": "uint256"
        }
      ],
      "name": "safeTransferFrom",
      "outputs": [],
      "stateMutability": "nonpayable",
      "type": "function"
    },
    {
      "inputs": [
        {
          "internalType": "address",
          "name": "from",
          "type": "address"
        },
        {
          "internalType": "address",
          "name": "to",
          "type": "address"
        },
        {
          "internalType": "uint256",
          "name": "tokenId",
          "type": "uint256"
        },
        {
          "internalType": "bytes",
          "name": "data",
          "type": "bytes"
        }
      ],
      "name": "safeTransferFrom",
      "outputs": [],
      "stateMutability": "nonpayable",
      "type": "function"
    },
    {
      "inputs": [
        {
          "internalType": "address",
          "name": "operator",
          "type": "address"
        },
        {
          "internalType": "bool",
          "name": "approved",
          "type": "bool"
        }
      ],
      "name": "setApprovalForAll",
      "outputs": [],
      "stateMutability": "nonpayable",
      "type": "function"
    },
    {
      "inputs": [
        {
          "internalType": "bytes4",
          "name": "interfaceId",
          "type": "bytes4"
        }
      ],
      "name": "supportsInterface",
      "outputs": [
        {
          "internalType": "bool",
          "name": "",
          "type": "bool"
        }
      ],
      "stateMutability": "view",
      "type": "function",
      "constant": true
    },
    {
      "inputs": [],
      "name": "symbol",
      "outputs": [
        {
          "internalType": "string",
          "name": "",
          "type": "string"
        }
      ],
      "stateMutability": "view",
      "type": "function",
      "constant": true
    },
    {
      "inputs": [
        {
          "internalType": "uint256",
          "name": "tokenId",
          "type": "uint256"
        }
      ],
      "name": "tokenURI",
      "outputs": [
        {
          "internalType": "string",
          "name": "",
          "type": "string"
        }
      ],
      "stateMutability": "view",
      "type": "function",
      "constant": true
    },
    {
      "inputs": [
        {
          "internalType": "address",
          "name": "from",
          "type": "address"
        },
        {
          "internalType": "address",
          "name": "to",
          "type": "address"
        },
        {
          "internalType": "uint256",
          "name": "tokenId",
          "type": "uint256"
        }
      ],
      "name": "transferFrom",
      "outputs": [],
      "stateMutability": "nonpayable",
      "type": "function"
    },
    {
      "inputs": [
        {
          "internalType": "address",
          "name": "newOwner",
          "type": "address"
        }
      ],
      "name": "transferOwnership",
      "outputs": [],
      "stateMutability": "nonpayable",
      "type": "function"
    },
    {
      "inputs": [
        {
          "internalType": "address",
          "name": "player",
          "type": "address"
        },
        {
          "internalType": "string",
          "name": "tokenURI",
          "type": "string"
        }
      ],
      "name": "awardItem",
      "outputs": [
        {
          "internalType": "uint256",
          "name": "",
          "type": "uint256"
        }
      ],
      "stateMutability": "nonpayable",
      "type": "function"
    }
  ],
  "bytecode": "0x60806040523480156200001157600080fd5b50336040518060400160405280600781526020017f476369744e4654000000000000000000000000000000000000000000000000008152506040518060400160405280600481526020017f474e465400000000000000000000000000000000000000000000000000000000815250816000908162000090919062000481565b508060019081620000a2919062000481565b505050600073ffffffffffffffffffffffffffffffffffffffff168173ffffffffffffffffffffffffffffffffffffffff16036200011a5760006040517f1e4fbdf7000000000000000000000000000000000000000000000000000000008152600401620001119190620005ad565b60405180910390fd5b62000134816200013b640100000000026401000000009004565b50620005ca565b6000600760009054906101000a900473ffffffffffffffffffffffffffffffffffffffff16905081600760006101000a81548173ffffffffffffffffffffffffffffffffffffffff021916908373ffffffffffffffffffffffffffffffffffffffff1602179055508173ffffffffffffffffffffffffffffffffffffffff168173ffffffffffffffffffffffffffffffffffffffff167f8be0079c531659141344cd1fd0a4f28419497f9722a3daafe3b4186f6b6457e060405160405180910390a35050565b600081519050919050565b7f4e487b7100000000000000000000000000000000000000000000000000000000600052604160045260246000fd5b7f4e487b7100000000000000000000000000000000000000000000000000000000600052602260045260246000fd5b600060028204905060018216806200028357607f821691505b6020821081036200029957620002986200023b565b5b50919050565b60008190508160005260206000209050919050565b60006020601f8301049050919050565b60008160020a8302905092915050565b600060088302620003067fffffffffffffffffffffffffffffffffffffffffffffffffffffffffffffffff82620002c4565b620003128683620002c4565b95508019841693508086168417925050509392505050565b6000819050919050565b6000819050919050565b60006200035f6200035962000353846200032a565b62000334565b6200032a565b9050919050565b6000819050919050565b6200037b836200033e565b620003936200038a8262000366565b848454620002d4565b825550505050565b600090565b620003aa6200039b565b620003b781848462000370565b505050565b5b81811015620003df57620003d3600082620003a0565b600181019050620003bd565b5050565b601f8211156200042e57620003f8816200029f565b6200040384620002b4565b8101602085101562000413578190505b6200042b6200042285620002b4565b830182620003bc565b50505b505050565b60008160020a8304905092915050565b6000620004566000198460080262000433565b1980831691505092915050565b600062000471838362000443565b9150826002028217905092915050565b6200048c8262000201565b67ffffffffffffffff811115620004a857620004a76200020c565b5b620004b482546200026a565b620004c1828285620003e3565b600060209050601f831160018114620004f95760008415620004e4578287015190505b620004f0858262000463565b86555062000560565b601f19841662000509866200029f565b60005b8281101562000533578489015182556001820191506020850194506020810190506200050c565b868310156200055357848901516200054f601f89168262000443565b8355505b6001600288020188555050505b505050505050565b600073ffffffffffffffffffffffffffffffffffffffff82169050919050565b6000620005958262000568565b9050919050565b620005a78162000588565b82525050565b6000602082019050620005c460008301846200059c565b92915050565b6126b280620005da6000396000f3fe608060405234801561001057600080fd5b5060043610610128576000357c010000000000000000000000000000000000000000000000000000000090048063715018a6116100bf578063b88d4fde1161008e578063b88d4fde146102c1578063c87b56dd146102dd578063cf3783431461030d578063e985e9c51461033d578063f2fde38b1461036d57610128565b8063715018a61461025f5780638da5cb5b1461026957806395d89b4114610287578063a22cb465146102a557610128565b806323b872dd116100fb57806323b872dd146101c757806342842e0e146101e35780636352211e146101ff57806370a082311461022f57610128565b806301ffc9a71461012d57806306fdde031461015d578063081812fc1461017b578063095ea7b3146101ab575b600080fd5b61014760048036038101906101429190611b04565b610389565b6040516101549190611b4c565b60405180910390f35b610165610406565b6040516101729190611bf7565b60405180910390f35b61019560048036038101906101909190611c4f565b610498565b6040516101a29190611cbd565b60405180910390f35b6101c560048036038101906101c09190611d04565b6104b4565b005b6101e160048036038101906101dc9190611d44565b6104ca565b005b6101fd60048036038101906101f89190611d44565b6105cc565b005b61021960048036038101906102149190611c4f565b6105ec565b6040516102269190611cbd565b60405180910390f35b61024960048036038101906102449190611d97565b6105fe565b6040516102569190611dd3565b60405180910390f35b6102676106b8565b005b6102716106cc565b60405161027e9190611cbd565b60405180910390f35b61028f6106f6565b60405161029c9190611bf7565b60405180910390f35b6102bf60048036038101906102ba9190611e1a565b610788565b005b6102db60048036038101906102d69190611f8f565b61079e565b005b6102f760048036038101906102f29190611c4f565b6107bb565b6040516103049190611bf7565b60405180910390f35b610327600480360381019061032291906120b3565b6108ce565b6040516103349190611dd3565b60405180910390f35b6103576004803603810190610352919061210f565b610911565b6040516103649190611b4c565b60405180910390f35b61038760048036038101906103829190611d97565b6109a5565b005b600063490649067c0100000000000000000000000000000000000000000000000000000000027bffffffffffffffffffffffffffffffffffffffffffffffffffffffff1916827bffffffffffffffffffffffffffffffffffffffffffffffffffffffff191614806103ff57506103fe82610a2b565b5b9050919050565b6060600080546104159061217e565b80601f01602080910402602001604051908101604052809291908181526020018280546104419061217e565b801561048e5780601f106104635761010080835404028352916020019161048e565b820191906000526020600020905b81548152906001019060200180831161047157829003601f168201915b5050505050905090565b60006104a382610b0d565b506104ad82610b95565b9050919050565b6104c682826104c1610bd2565b610bda565b5050565b600073ffffffffffffffffffffffffffffffffffffffff168273ffffffffffffffffffffffffffffffffffffffff160361053c5760006040517f64a0ae920000000000000000000000000000000000000000000000000000000081526004016105339190611cbd565b60405180910390fd5b6000610550838361054b610bd2565b610bec565b90508373ffffffffffffffffffffffffffffffffffffffff168173ffffffffffffffffffffffffffffffffffffffff16146105c6578382826040517f64283d7b0000000000000000000000000000000000000000000000000000000081526004016105bd939291906121af565b60405180910390fd5b50505050565b6105e78383836040518060200160405280600081525061079e565b505050565b60006105f782610b0d565b9050919050565b60008073ffffffffffffffffffffffffffffffffffffffff168273ffffffffffffffffffffffffffffffffffffffff16036106715760006040517f89c62b640000000000000000000000000000000000000000000000000000000081526004016106689190611cbd565b60405180910390fd5b600360008373ffffffffffffffffffffffffffffffffffffffff1673ffffffffffffffffffffffffffffffffffffffff168152602001908152602001600020549050919050565b6106c0610e06565b6106ca6000610e8d565b565b6000600760009054906101000a900473ffffffffffffffffffffffffffffffffffffffff16905090565b6060600180546107059061217e565b80601f01602080910402602001604051908101604052809291908181526020018280546107319061217e565b801561077e5780601f106107535761010080835404028352916020019161077e565b820191906000526020600020905b81548152906001019060200180831161076157829003601f168201915b5050505050905090565b61079a610793610bd2565b8383610f53565b5050565b6107a98484846104ca565b6107b5848484846110c2565b50505050565b60606107c682610b0d565b5060006006600084815260200190815260200160002080546107e79061217e565b80601f01602080910402602001604051908101604052809291908181526020018280546108139061217e565b80156108605780601f1061083557610100808354040283529160200191610860565b820191906000526020600020905b81548152906001019060200180831161084357829003601f168201915b5050505050905060006108716112b1565b905060008151036108865781925050506108c9565b6000825111156108bb5780826040516020016108a3929190612222565b604051602081830303815290604052925050506108c9565b6108c4846112c8565b925050505b919050565b60006108d8610e06565b6000600860008154809291906108ed90612275565b9190505590506108fd8482611331565b610907818461142a565b8091505092915050565b6000600560008473ffffffffffffffffffffffffffffffffffffffff1673ffffffffffffffffffffffffffffffffffffffff16815260200190815260200160002060008373ffffffffffffffffffffffffffffffffffffffff1673ffffffffffffffffffffffffffffffffffffffff16815260200190815260200160002060009054906101000a900460ff16905092915050565b6109ad610e06565b600073ffffffffffffffffffffffffffffffffffffffff168173ffffffffffffffffffffffffffffffffffffffff1603610a1f5760006040517f1e4fbdf7000000000000000000000000000000000000000000000000000000008152600401610a169190611cbd565b60405180910390fd5b610a2881610e8d565b50565b60007f80ac58cd000000000000000000000000000000000000000000000000000000007bffffffffffffffffffffffffffffffffffffffffffffffffffffffff1916827bffffffffffffffffffffffffffffffffffffffffffffffffffffffff19161480610af657507f5b5e139f000000000000000000000000000000000000000000000000000000007bffffffffffffffffffffffffffffffffffffffffffffffffffffffff1916827bffffffffffffffffffffffffffffffffffffffffffffffffffffffff1916145b80610b065750610b0582611486565b5b9050919050565b600080610b19836114f0565b9050600073ffffffffffffffffffffffffffffffffffffffff168173ffffffffffffffffffffffffffffffffffffffff1603610b8c57826040517f7e273289000000000000000000000000000000000000000000000000000000008152600401610b839190611dd3565b60405180910390fd5b80915050919050565b60006004600083815260200190815260200160002060009054906101000a900473ffffffffffffffffffffffffffffffffffffffff169050919050565b600033905090565b610be7838383600161152d565b505050565b600080610bf8846114f0565b9050600073ffffffffffffffffffffffffffffffffffffffff168373ffffffffffffffffffffffffffffffffffffffff1614610c3a57610c398184866116f2565b5b600073ffffffffffffffffffffffffffffffffffffffff168173ffffffffffffffffffffffffffffffffffffffff1614610ccb57610c7c60008560008061152d565b6001600360008373ffffffffffffffffffffffffffffffffffffffff1673ffffffffffffffffffffffffffffffffffffffff168152602001908152602001600020600082825403925050819055505b600073ffffffffffffffffffffffffffffffffffffffff168573ffffffffffffffffffffffffffffffffffffffff1614610d4e576001600360008773ffffffffffffffffffffffffffffffffffffffff1673ffffffffffffffffffffffffffffffffffffffff168152602001908152602001600020600082825401925050819055505b846002600086815260200190815260200160002060006101000a81548173ffffffffffffffffffffffffffffffffffffffff021916908373ffffffffffffffffffffffffffffffffffffffff160217905550838573ffffffffffffffffffffffffffffffffffffffff168273ffffffffffffffffffffffffffffffffffffffff167fddf252ad1be2c89b69c2b068fc378daa952ba7f163c4a11628f55a4df523b3ef60405160405180910390a4809150509392505050565b610e0e610bd2565b73ffffffffffffffffffffffffffffffffffffffff16610e2c6106cc565b73ffffffffffffffffffffffffffffffffffffffff1614610e8b57610e4f610bd2565b6040517f118cdaa7000000000000000000000000000000000000000000000000000000008152600401610e829190611cbd565b60405180910390fd5b565b6000600760009054906101000a900473ffffffffffffffffffffffffffffffffffffffff16905081600760006101000a81548173ffffffffffffffffffffffffffffffffffffffff021916908373ffffffffffffffffffffffffffffffffffffffff1602179055508173ffffffffffffffffffffffffffffffffffffffff168173ffffffffffffffffffffffffffffffffffffffff167f8be0079c531659141344cd1fd0a4f28419497f9722a3daafe3b4186f6b6457e060405160405180910390a35050565b600073ffffffffffffffffffffffffffffffffffffffff168273ffffffffffffffffffffffffffffffffffffffff1603610fc457816040517f5b08ba18000000000000000000000000000000000000000000000000000000008152600401610fbb9190611cbd565b60405180910390fd5b80600560008573ffffffffffffffffffffffffffffffffffffffff1673ffffffffffffffffffffffffffffffffffffffff16815260200190815260200160002060008473ffffffffffffffffffffffffffffffffffffffff1673ffffffffffffffffffffffffffffffffffffffff16815260200190815260200160002060006101000a81548160ff0219169083151502179055508173ffffffffffffffffffffffffffffffffffffffff168373ffffffffffffffffffffffffffffffffffffffff167f17307eab39ab6107e8899845ad3d59bd9653f200f220920489ca2b5937696c31836040516110b59190611b4c565b60405180910390a3505050565b60008373ffffffffffffffffffffffffffffffffffffffff163b11156112ab578273ffffffffffffffffffffffffffffffffffffffff1663150b7a02611106610bd2565b8685856040518563ffffffff167c01000000000000000000000000000000000000000000000000000000000281526004016111449493929190612312565b6020604051808303816000875af192505050801561118057506040513d601f19601f8201168201806040525081019061117d9190612373565b60015b611204573d80600081146111b0576040519150601f19603f3d011682016040523d82523d6000602084013e6111b5565b606091505b5060008151036111fc57836040517f64a0ae920000000000000000000000000000000000000000000000000000000081526004016111f39190611cbd565b60405180910390fd5b805181602001fd5b63150b7a027c0100000000000000000000000000000000000000000000000000000000027bffffffffffffffffffffffffffffffffffffffffffffffffffffffff1916817bffffffffffffffffffffffffffffffffffffffffffffffffffffffff1916146112a957836040517f64a0ae920000000000000000000000000000000000000000000000000000000081526004016112a09190611cbd565b60405180910390fd5b505b50505050565b606060405180602001604052806000815250905090565b60606112d382610b0d565b5060006112de6112b1565b905060008151116112fe5760405180602001604052806000815250611329565b80611308846117b6565b604051602001611319929190612222565b6040516020818303038152906040525b915050919050565b600073ffffffffffffffffffffffffffffffffffffffff168273ffffffffffffffffffffffffffffffffffffffff16036113a35760006040517f64a0ae9200000000000000000000000000000000000000000000000000000000815260040161139a9190611cbd565b60405180910390fd5b60006113b183836000610bec565b9050600073ffffffffffffffffffffffffffffffffffffffff168173ffffffffffffffffffffffffffffffffffffffff16146114255760006040517f73c6ac6e00000000000000000000000000000000000000000000000000000000815260040161141c9190611cbd565b60405180910390fd5b505050565b8060066000848152602001908152602001600020908161144a9190612552565b507ff8e1a15aba9398e019f0b49df1a4fde98ee17ae345cb5f6b5e2c27f5033e8ce78260405161147a9190611dd3565b60405180910390a15050565b60007f01ffc9a7000000000000000000000000000000000000000000000000000000007bffffffffffffffffffffffffffffffffffffffffffffffffffffffff1916827bffffffffffffffffffffffffffffffffffffffffffffffffffffffff1916149050919050565b60006002600083815260200190815260200160002060009054906101000a900473ffffffffffffffffffffffffffffffffffffffff169050919050565b80806115665750600073ffffffffffffffffffffffffffffffffffffffff168273ffffffffffffffffffffffffffffffffffffffff1614155b1561169a57600061157684610b0d565b9050600073ffffffffffffffffffffffffffffffffffffffff168373ffffffffffffffffffffffffffffffffffffffff16141580156115e157508273ffffffffffffffffffffffffffffffffffffffff168173ffffffffffffffffffffffffffffffffffffffff1614155b80156115f457506115f28184610911565b155b1561163657826040517fa9fbf51f00000000000000000000000000000000000000000000000000000000815260040161162d9190611cbd565b60405180910390fd5b811561169857838573ffffffffffffffffffffffffffffffffffffffff168273ffffffffffffffffffffffffffffffffffffffff167f8c5be1e5ebec7d5bd14f71427d1e84f3dd0314c0f7b2291e5b200ac8c7c3b92560405160405180910390a45b505b836004600085815260200190815260200160002060006101000a81548173ffffffffffffffffffffffffffffffffffffffff021916908373ffffffffffffffffffffffffffffffffffffffff16021790555050505050565b6116fd838383611884565b6117b157600073ffffffffffffffffffffffffffffffffffffffff168373ffffffffffffffffffffffffffffffffffffffff160361177257806040517f7e2732890000000000000000000000000000000000000000000000000000000081526004016117699190611dd3565b60405180910390fd5b81816040517f177e802f0000000000000000000000000000000000000000000000000000000081526004016117a8929190612624565b60405180910390fd5b505050565b6060600060016117c584611945565b01905060008167ffffffffffffffff8111156117e4576117e3611e64565b5b6040519080825280601f01601f1916602001820160405280156118165781602001600182028036833780820191505090505b509050600082602001820190505b600115611879578080600190039150507f3031323334353637383961626364656600000000000000000000000000000000600a86061a8153600a858161186d5761186c61264d565b5b04945060008503611824575b819350505050919050565b60008073ffffffffffffffffffffffffffffffffffffffff168373ffffffffffffffffffffffffffffffffffffffff161415801561193c57508273ffffffffffffffffffffffffffffffffffffffff168473ffffffffffffffffffffffffffffffffffffffff1614806118fd57506118fc8484610911565b5b8061193b57508273ffffffffffffffffffffffffffffffffffffffff1661192383610b95565b73ffffffffffffffffffffffffffffffffffffffff16145b5b90509392505050565b600080600090507a184f03e93ff9f4daa797ed6e38ed64bf6a1f01000000000000000083106119a3577a184f03e93ff9f4daa797ed6e38ed64bf6a1f01000000000000000083816119995761199861264d565b5b0492506040810190505b6d04ee2d6d415b85acef810000000083106119e0576d04ee2d6d415b85acef810000000083816119d6576119d561264d565b5b0492506020810190505b662386f26fc100008310611a0f57662386f26fc100008381611a0557611a0461264d565b5b0492506010810190505b6305f5e1008310611a38576305f5e1008381611a2e57611a2d61264d565b5b0492506008810190505b6127108310611a5d576127108381611a5357611a5261264d565b5b0492506004810190505b60648310611a805760648381611a7657611a7561264d565b5b0492506002810190505b600a8310611a8f576001810190505b80915050919050565b6000604051905090565b600080fd5b600080fd5b60007fffffffff0000000000000000000000000000000000000000000000000000000082169050919050565b611ae181611aac565b8114611aec57600080fd5b50565b600081359050611afe81611ad8565b92915050565b600060208284031215611b1a57611b19611aa2565b5b6000611b2884828501611aef565b91505092915050565b60008115159050919050565b611b4681611b31565b82525050565b6000602082019050611b616000830184611b3d565b92915050565b600081519050919050565b600082825260208201905092915050565b60005b83811015611ba1578082015181840152602081019050611b86565b60008484015250505050565b6000601f19601f8301169050919050565b6000611bc982611b67565b611bd38185611b72565b9350611be3818560208601611b83565b611bec81611bad565b840191505092915050565b60006020820190508181036000830152611c118184611bbe565b905092915050565b6000819050919050565b611c2c81611c19565b8114611c3757600080fd5b50565b600081359050611c4981611c23565b92915050565b600060208284031215611c6557611c64611aa2565b5b6000611c7384828501611c3a565b91505092915050565b600073ffffffffffffffffffffffffffffffffffffffff82169050919050565b6000611ca782611c7c565b9050919050565b611cb781611c9c565b82525050565b6000602082019050611cd26000830184611cae565b92915050565b611ce181611c9c565b8114611cec57600080fd5b50565b600081359050611cfe81611cd8565b92915050565b60008060408385031215611d1b57611d1a611aa2565b5b6000611d2985828601611cef565b9250506020611d3a85828601611c3a565b9150509250929050565b600080600060608486031215611d5d57611d5c611aa2565b5b6000611d6b86828701611cef565b9350506020611d7c86828701611cef565b9250506040611d8d86828701611c3a565b9150509250925092565b600060208284031215611dad57611dac611aa2565b5b6000611dbb84828501611cef565b91505092915050565b611dcd81611c19565b82525050565b6000602082019050611de86000830184611dc4565b92915050565b611df781611b31565b8114611e0257600080fd5b50565b600081359050611e1481611dee565b92915050565b60008060408385031215611e3157611e30611aa2565b5b6000611e3f85828601611cef565b9250506020611e5085828601611e05565b9150509250929050565b600080fd5b600080fd5b7f4e487b7100000000000000000000000000000000000000000000000000000000600052604160045260246000fd5b611e9c82611bad565b810181811067ffffffffffffffff82111715611ebb57611eba611e64565b5b80604052505050565b6000611ece611a98565b9050611eda8282611e93565b919050565b600067ffffffffffffffff821115611efa57611ef9611e64565b5b611f0382611bad565b9050602081019050919050565b82818337600083830152505050565b6000611f32611f2d84611edf565b611ec4565b905082815260208101848484011115611f4e57611f4d611e5f565b5b611f59848285611f10565b509392505050565b600082601f830112611f7657611f75611e5a565b5b8135611f86848260208601611f1f565b91505092915050565b60008060008060808587031215611fa957611fa8611aa2565b5b6000611fb787828801611cef565b9450506020611fc887828801611cef565b9350506040611fd987828801611c3a565b925050606085013567ffffffffffffffff811115611ffa57611ff9611aa7565b5b61200687828801611f61565b91505092959194509250565b600067ffffffffffffffff82111561202d5761202c611e64565b5b61203682611bad565b9050602081019050919050565b600061205661205184612012565b611ec4565b90508281526020810184848401111561207257612071611e5f565b5b61207d848285611f10565b509392505050565b600082601f83011261209a57612099611e5a565b5b81356120aa848260208601612043565b91505092915050565b600080604083850312156120ca576120c9611aa2565b5b60006120d885828601611cef565b925050602083013567ffffffffffffffff8111156120f9576120f8611aa7565b5b61210585828601612085565b9150509250929050565b6000806040838503121561212657612125611aa2565b5b600061213485828601611cef565b925050602061214585828601611cef565b9150509250929050565b7f4e487b7100000000000000000000000000000000000000000000000000000000600052602260045260246000fd5b6000600282049050600182168061219657607f821691505b6020821081036121a9576121a861214f565b5b50919050565b60006060820190506121c46000830186611cae565b6121d16020830185611dc4565b6121de6040830184611cae565b949350505050565b600081905092915050565b60006121fc82611b67565b61220681856121e6565b9350612216818560208601611b83565b80840191505092915050565b600061222e82856121f1565b915061223a82846121f1565b91508190509392505050565b7f4e487b7100000000000000000000000000000000000000000000000000000000600052601160045260246000fd5b600061228082611c19565b91507fffffffffffffffffffffffffffffffffffffffffffffffffffffffffffffffff82036122b2576122b1612246565b5b600182019050919050565b600081519050919050565b600082825260208201905092915050565b60006122e4826122bd565b6122ee81856122c8565b93506122fe818560208601611b83565b61230781611bad565b840191505092915050565b60006080820190506123276000830187611cae565b6123346020830186611cae565b6123416040830185611dc4565b818103606083015261235381846122d9565b905095945050505050565b60008151905061236d81611ad8565b92915050565b60006020828403121561238957612388611aa2565b5b60006123978482850161235e565b91505092915050565b60008190508160005260206000209050919050565b60006020601f8301049050919050565b60008160020a8302905092915050565b6000600883026124057fffffffffffffffffffffffffffffffffffffffffffffffffffffffffffffffff826123c5565b61240f86836123c5565b95508019841693508086168417925050509392505050565b6000819050919050565b600061244c61244761244284611c19565b612427565b611c19565b9050919050565b6000819050919050565b61246683612431565b61247a61247282612453565b8484546123d5565b825550505050565b600090565b61248f612482565b61249a81848461245d565b505050565b5b818110156124be576124b3600082612487565b6001810190506124a0565b5050565b601f821115612503576124d4816123a0565b6124dd846123b5565b810160208510156124ec578190505b6125006124f8856123b5565b83018261249f565b50505b505050565b60008160020a8304905092915050565b600061252960001984600802612508565b1980831691505092915050565b60006125428383612518565b9150826002028217905092915050565b61255b82611b67565b67ffffffffffffffff81111561257457612573611e64565b5b61257e825461217e565b6125898282856124c2565b600060209050601f8311600181146125bc57600084156125aa578287015190505b6125b48582612536565b86555061261c565b601f1984166125ca866123a0565b60005b828110156125f2578489015182556001820191506020850194506020810190506125cd565b8683101561260f578489015161260b601f891682612518565b8355505b6001600288020188555050505b505050505050565b60006040820190506126396000830185611cae565b6126466020830184611dc4565b9392505050565b7f4e487b7100000000000000000000000000000000000000000000000000000000600052601260045260246000fdfea2646970667358221220e98f08e060908952e5d572160045c96acf8a45c310021631d78a38d4e429812b64736f6c63430008140033",
  "immutableReferences": {},
  "source": "// SPDX-License-Identifier: MIT\npragma solidity ^0.8.20;\n\nimport \"@openzeppelin/contracts/token/ERC721/extensions/ERC721URIStorage.sol\";\nimport \"@openzeppelin/contracts/access/Ownable.sol\";\n\ncontract GcitNFT is ERC721URIStorage, Ownable {\n    uint256 private _nextTokenId;\n\n    constructor() ERC721(\"GcitNFT\", \"GNFT\") Ownable(msg.sender) {}\n\n    function awardItem(address player, string memory tokenURI)\n        public onlyOwner\n        returns (uint256)\n    {\n        uint256 tokenId = _nextTokenId++;\n        _mint(player, tokenId);\n        _setTokenURI(tokenId, tokenURI);\n\n        return tokenId;\n    }\n}\n",
  "sourcePath": "D:\\CSB\\gcit-nft\\contracts\\contracts\\GcitNFT.sol",
  "compiler": {
    "name": "solc",
    "version": "0.8.20+commit.a1b79de6.Emscripten.clang"
  },
  "schemaVersion": "3.4.16",
  "updatedAt": "2024-08-26T09:45:40.206Z",
  "networkType": "ethereum",
  "devdoc": {
    "errors": {
      "ERC721IncorrectOwner(address,uint256,address)": [
        {
          "details": "Indicates an error related to the ownership over a particular token. Used in transfers.",
          "params": {
            "owner": "Address of the current owner of a token.",
            "sender": "Address whose tokens are being transferred.",
            "tokenId": "Identifier number of a token."
          }
        }
      ],
      "ERC721InsufficientApproval(address,uint256)": [
        {
          "details": "Indicates a failure with the `operator`s approval. Used in transfers.",
          "params": {
            "operator": "Address that may be allowed to operate on tokens without being their owner.",
            "tokenId": "Identifier number of a token."
          }
        }
      ],
      "ERC721InvalidApprover(address)": [
        {
          "details": "Indicates a failure with the `approver` of a token to be approved. Used in approvals.",
          "params": {
            "approver": "Address initiating an approval operation."
          }
        }
      ],
      "ERC721InvalidOperator(address)": [
        {
          "details": "Indicates a failure with the `operator` to be approved. Used in approvals.",
          "params": {
            "operator": "Address that may be allowed to operate on tokens without being their owner."
          }
        }
      ],
      "ERC721InvalidOwner(address)": [
        {
          "details": "Indicates that an address can't be an owner. For example, `address(0)` is a forbidden owner in EIP-20. Used in balance queries.",
          "params": {
            "owner": "Address of the current owner of a token."
          }
        }
      ],
      "ERC721InvalidReceiver(address)": [
        {
          "details": "Indicates a failure with the token `receiver`. Used in transfers.",
          "params": {
            "receiver": "Address to which tokens are being transferred."
          }
        }
      ],
      "ERC721InvalidSender(address)": [
        {
          "details": "Indicates a failure with the token `sender`. Used in transfers.",
          "params": {
            "sender": "Address whose tokens are being transferred."
          }
        }
      ],
      "ERC721NonexistentToken(uint256)": [
        {
          "details": "Indicates a `tokenId` whose `owner` is the zero address.",
          "params": {
            "tokenId": "Identifier number of a token."
          }
        }
      ],
      "OwnableInvalidOwner(address)": [
        {
          "details": "The owner is not a valid owner account. (eg. `address(0)`)"
        }
      ],
      "OwnableUnauthorizedAccount(address)": [
        {
          "details": "The caller account is not authorized to perform an operation."
        }
      ]
    },
    "events": {
      "Approval(address,address,uint256)": {
        "details": "Emitted when `owner` enables `approved` to manage the `tokenId` token."
      },
      "ApprovalForAll(address,address,bool)": {
        "details": "Emitted when `owner` enables or disables (`approved`) `operator` to manage all of its assets."
      },
      "BatchMetadataUpdate(uint256,uint256)": {
        "details": "This event emits when the metadata of a range of tokens is changed. So that the third-party platforms such as NFT market could timely update the images and related attributes of the NFTs."
      },
      "MetadataUpdate(uint256)": {
        "details": "This event emits when the metadata of a token is changed. So that the third-party platforms such as NFT market could timely update the images and related attributes of the NFT."
      },
      "Transfer(address,address,uint256)": {
        "details": "Emitted when `tokenId` token is transferred from `from` to `to`."
      }
    },
    "kind": "dev",
    "methods": {
      "approve(address,uint256)": {
        "details": "See {IERC721-approve}."
      },
      "balanceOf(address)": {
        "details": "See {IERC721-balanceOf}."
      },
      "getApproved(uint256)": {
        "details": "See {IERC721-getApproved}."
      },
      "isApprovedForAll(address,address)": {
        "details": "See {IERC721-isApprovedForAll}."
      },
      "name()": {
        "details": "See {IERC721Metadata-name}."
      },
      "owner()": {
        "details": "Returns the address of the current owner."
      },
      "ownerOf(uint256)": {
        "details": "See {IERC721-ownerOf}."
      },
      "renounceOwnership()": {
        "details": "Leaves the contract without owner. It will not be possible to call `onlyOwner` functions. Can only be called by the current owner. NOTE: Renouncing ownership will leave the contract without an owner, thereby disabling any functionality that is only available to the owner."
      },
      "safeTransferFrom(address,address,uint256)": {
        "details": "See {IERC721-safeTransferFrom}."
      },
      "safeTransferFrom(address,address,uint256,bytes)": {
        "details": "See {IERC721-safeTransferFrom}."
      },
      "setApprovalForAll(address,bool)": {
        "details": "See {IERC721-setApprovalForAll}."
      },
      "supportsInterface(bytes4)": {
        "details": "See {IERC165-supportsInterface}"
      },
      "symbol()": {
        "details": "See {IERC721Metadata-symbol}."
      },
      "tokenURI(uint256)": {
        "details": "See {IERC721Metadata-tokenURI}."
      },
      "transferFrom(address,address,uint256)": {
        "details": "See {IERC721-transferFrom}."
      },
      "transferOwnership(address)": {
        "details": "Transfers ownership of the contract to a new account (`newOwner`). Can only be called by the current owner."
      }
    },
    "version": 1
  },
  "userdoc": {
    "kind": "user",
    "methods": {},
    "version": 1
  }
}